:200000000090002055380000EB350000EB3100009F3400009F3400009F3400009F3400001B
:200020009F3400009F3400009F3400009F3400009F3400009F3400009F3400009F34000028
:200040009F3400009F3400009F3400009F3400009F3400009F3400009F3400009F34000008
:200060009F3400009F3400009F3400009F3400009F3400009F3400009F3400009F340000E8
:0C0080009F3400009F3400009F340000FB
:20008C00F0B58DB00446C26A016C03F038F8E16F4A1C904201D93526AAE1002813D0880091
:2000AC00226C17180837891C384603F0EAFBA168384603F03DFB002807D0E56F691C8842E9
:2000CC0005D9C62694E1532692E16C2690E121786626022900D28BE1052900D988E10126C1
:2000EC000329334600D30023216C0A6832405A400C968026A2510990E06720463A460B46FC
:20010C0002F0EAFA20784000001F0C9F39468140A151216C20460A4603F02AF8E567E16C38
:20012C0020463A4603F00FFBA36FE56F626EA06EE16C0095B04DA847A36FE66FA26EE06EF9
:20014C00E16C0096A847A36FE66FA06EE26EE16C0096A847226B216F204602F0D0FFE56F92
:20016C00A84201D93C2643E100280FD0A36FE26E216F606C03F016FC626B216F204602F0AA
:20018C00BEFFE56FA84203D9652631E1C3262FE1064600280FD0A36FA26E216FA06C03F0E2
:2001AC0001FCE268E16E204602F0A9FFE56FAE4203D95C261CE156261AE126468036A36F53
:2001CC00A26EE16E206F03F0EDFBA36FE56FE26C206D216F03F0E6FBE06F421C0B963260C5
:2001EC00666D00252778B81E0123194681408D4209DA616C304603F02FFB0B980268900093
:20020C0036186D1CEEE70C93A06D00250B9EBB1E0C9999408D4206DAA16C074603F01CFB42
:20022C0003F021FBF3E7E06D0025BB1E0C9999408D4206DAE16C074603F00EFB03F013FBBA
:20024C00F3E70A9709984001421C216C08788007C60F00200890099003460C9F0292BA4299
:20026C0072D93D4637460793501B0A9EB04232460B9B00D802461A6020462A4602F0E6FE24
:20028C0009994018C1B2731E012632469A4091420C9501DA084600E04042914206963546F2
:2002AC0000DA002529460A9A914008180006800D001F04218843FEB2B7005249C919089A07
:2002CC0052008918495D89004F4A925D891808180B990860204600F0A3F86A0005924B4816
:2002EC000497C1198918099A8A5C4948C11920780A90801E0390095C0C9F7F181F233B4021
:20030C0079098D00216C4D59DD40069805400992554005235D430A2070433E4A10184019B1
:20032C00142575433C4A5519039A5343EA18079BD35CC65C3948049A8018059A8018089A14
:20034C00825C0892029A8AE7099801280A9810D108988000C01C0B9E3060284D2046A847C0
:20036C00012030602046A847022030602046A8472078992603283BD3811E01200C908840B0
:20038C00FE300021C9430A910B9D0C992960C7B2002F11D07A1C2046394600F0FDFF0C98F1
:2003AC0028602078801E0A998140C94320463A4600F0F2FF781EE8E72078801E0A9F394679
:2003CC008140CA430021099120460D4B98470C9828602078801E8740FA432046099F3946F8
:2003EC00074B98470C9A2A6020463946044B984730460DB0F0BDC046810700002D040000DE
:20040C00A5130000263D0000A83D0000F63C00000E3D0000523B0000CC3900003E3D000046
:20042C00F0B589B00446802025580395E06DE26F616F636C08930791E908531C4B43D9B2EA
:20044C008F00C0190690A807060F05A88159A36F206E0092C44D0A46A847E06E616E08910F
:20046C000790069105A88059A36FE26FA16C0092BE4D0A46A847E06E216FA26C636E089318
:20048C000791069205A98959E26D236EE56C08950793D2190497069205AA03F04FFAB24D20
:2004AC00A847606EE16EE26C06AB07C305A88059E26F521C03F0D0F9E06E216F089007914C
:2004CC00069005A88059A36FE26F216E00920A46A64DA847206FA16E08910790069005A82D
:2004EC008059A16D226E636E08930792C919069105A98959A26CE36C656F0892079506936B
:20050C0005AA03F01BFA984DA847206E616F08910790069105A88059A36FA16EE26F009295
:20052C000A46924DA847234660330ECB08920791069305A88759E56C606F08900795069179
:20054C0005A9895908930790069205A88259A36FE06F00903846844DA847226E606E616F50
:20056C0006AB07C305A88559A36FE16EE06F009028467E4FB847A36FE06F226D216E0090E0
:20058C002846B847E06C616E226E06AB07C305A88159E06E626FA36E06AD0DC505A88059FA
:2005AC00A36FE26F00920A466F4DA847616EA26DE56E0895049FD2190792069105A9885924
:2005CC000290216F226E636F08930792069105A98959E26D636C0893D2190792069505AAA9
:2005EC0003F0ACF9604DA847606EE16DE26E0892C9190791069005A88059E16F4A1C0299CE
:20060C0003F02AF9E06E216D08910790069105A88159206E226F08920790069205A8805920
:20062C00A36FE26F00920A46504DA847606E616FA26E06AB07C305A88059216EE36E0893B3
:20064C000791069205A98A59A36FE16F0091484D0146A847226F216E206D0890079106929A
:20066C0005A88059636E06AD0EC505A98959636CA76E08920797069305AA03F05AF93A4DD0
:20068C00A847616F606D626C0892049D40190790069105A88059A26E08920791069205A924
:2006AC008959226FE36E08930792069305AA03F040F92F4FB847E16E606F08900791069061
:2006CC0005A88059626D636C089352190792069305AA03F02EF9264FB847616FA06EE26E47
:2006EC0008920790069105A88059636D089107925919069105A98959636E276E0897079366
:20070C00069205AA03F015F9174FB847616FA06DA26C089240190790069105A880590490FA
:20072C00A06EE26E636E079306920425039F3D402D1D05AF7F5908970790069105A88159DA
:20074C00206F276E0792069305AA525908920797069005A88259A36FE06F00900498044CAA
:20076C00A04709B0F0BDC0468107000025090000AD090000F8B444464D4656465F46F0B400
:20078C0000B501B40B9B5B005B1C6C469B00E31A9D4610B46C46241D00266D46009CE36AC5
:2007AC002D1D9B00EE505B00EE50E36A013B9B0098465B009946002300240025002702E0C0
:2007CC00370040463F1A9A46A346AC46B646F01B1458C859030C80B2250CA4B21E006E4311
:2007EC006343454360431C041B0C00195E412C042D0C00196E4153465C4665461B1874411E
:20080C000020454176460437474501DCB742DADD6846001D835123462C46002504364645B2
:20082C00CCDD4E45CCDD8351009B9969083102464E4604361068009B9C6924684443A146F5
:20084C0000270023002400259A46A346AC46B6464C46C859030C80B2250CA4B21E006E43F8
:20086C006343454360431C041B0C00195E412C042D0C00196E4153465C4665461B1874419D
:20088C0000204541D0591B18002044414541002F02D0043FD35104370437764623462C46AA
:2008AC0000254745D0DD301D8742EBDD043FD351043E464500DDBDE710BC2068E36A9B46B9
:2008CC00024691466846012720C840C97F08B5417F4120C2013BF7D105682F430126F741C5
:2008EC00FF17FE4368463840494631400843494639406D46354029435B4604C904C0013B1A
:20090C00FBD1A54603BC8E46F0BCA046A946B246BB46F8BC7047C046F0B444464D46564639
:20092C0070B48146079CA246002720C940CA7F0875417F4120C0013CF7D1B8464846083372
:20094C0054466A46A400141BA54604B46A46121D5446012720C840CB7F08B5417F4120C218
:20096C00013CF7D1424617430126F741FF17FE4348466946091D0D46384031400843494655
:20098C0031403D402943544604C904C0013CFBD101BC854670BCA046A946B246F0BC7047D9
:2009AC00F0B444464D46564670B48146079CA246012720C940CA7F08B5417F4120C0013CE3
:2009CC00F7D1B8464846083354466A46A400141BA54604B46A46121D5446002720C840CB29
:2009EC007F0875417F4120C2013CF7D147460126F741FF17FE4348466946091D0D4630409E
:200A0C00394008434946394035402943544604C904C0013CFBD101BC854670BCA046A94660
:200A2C00B246F0BC7047C046F0B444464D4630B4884699466C469B00E31A9D4610B46C4654
:200A4C00241D4B460832012720C940CA7F08B5417F4120C4013BF7D16A46121D0125EF4109
:200A6C00FF17FD43414629403A4011434B4610C910C0013BFBD101BC854630BCA046A946CB
:200A8C00F0BC7047F0B58FB00E9316460D9104468168856A284602F056FDE067002804D050
:200AAC000746FF2803D9282043E16C2041E1287AC00701D182203CE1781C810068580028C9
:200ACC0039D0099615980B9020460E460C9129463A4601F010FBF800089545190835204642
:200AEC00294601F072FBA36FE06F0090A819061D304629462A46FFF70FFFE06F40018021BE
:200B0C0060500C983018011D20460A9632460E462B4601F00DFD0146E06F421C284602F07D
:200B2C009BFE204631460B9A02F0E9FAE26F904203D92220FDE02320FBE0002833D00C98AE
:200B4C0030180690314607960B9525468035A36F00920A9E30460B9AFFF70CFE2078801E3A
:200B6C000321059181400C31049529602046314600F0FAFC0146E06F421C304602F06CFE06
:200B8C00A36FE06F00900798069D31460B9AFFF7F1FD204629460E9A02F0B1FAE16F8842E2
:200BAC0003D92720C5E02120C3E000282DD02E46149803900C9828180E90A36F00910B9DD8
:200BCC0028463146079AFFF7D5FD01222046314602F0B9FDA36FE06F00900E982946324695
:200BEC00FFF7C8FDE16F02C5A26FE36F029528460E99FFF719FF20463146039A02F07FFA15
:200C0C00E16F884203D9112093E0722091E0002800D18DE00C9A0E988018801880180C9015
:200C2C00A36F00910A9E3046069D2946079AFFF7A1FD01222046294602F085FDA36FE06FD3
:200C4C0000900E9831462A46FFF794FDE16F3046079E02C0A26FE36F01900E99FFF7E4FE44
:200C6C006069A1690C9AA2620B9DE56220636163204601F0C7F999285BD102F0AAFD4118BF
:200C8C000C31304602F0E8FD02F06DFC41180C31069802F0E1FD2046FFF7F2F9992848D13E
:200CAC0020460E9902F09CFA0A98E0620D9820630998606302F08DFD40180C30314602F0AA
:200CCC00CBFD02F050FC40180C30069902F0C4FD2046FFF7D5F999282BD178000D900220FE
:200CEC00049908600026204631460E9A00F054FBA5630A98E063204601F014F8089DA562FD
:200D0C00E76FA168284602F01EFC0246E0672046294601F0F0F90D983818800040190C30A6
:200D2C00791CE26F531C994206D240C0491CF8E71220C0B20FB0F0BD0A9D2A60A26FE36FB7
:200D4C0001980299FFF770FEE06F421C2846039902F07EFC01465A200029EAD0C043E8E756
:200D6C00F0B58FB006910446844800680B906021204602F067FC099420340025814F824EE1
:200D8C00022D10D0284602F083FDC0B2214602F01DFB002804D07A483946324602F0D2F804
:200DAC002C346D1CECE70024099E3546022C0DD00023304621462A4602F0F6F9002802D1CE
:200DCC002C35641CF2E7002C00D1C5E00CA80027078034463D46022D0CD0216A204602F05E
:200DEC0059FB002803D00CA8012141557F1C2C346D1CF0E7002F00D19CE000200590089701
:200E0C00B84200D198E00A9000203146024603461E461546022822D00CAA125C002A08D0C0
:200E2C00002E09D0327D0B7D934202460B4605D807D22A46334601E002460B462C31401C28
:200E4C00E6E7727D4B7D934202460B46F6D8F0D3F28ACB8A934202460B46EAD9EEE747489D
:200E6C00046800273846294602F019FDC0B20DA902F0ACFA002851D12C206843099908181B
:200E8C000B9000242046294602F009FDC0B20EA902F09CFA002826D00B9A107CC00637D4E9
:200EAC000D9B01200790000238490091019002940394049420462146144600F06FF90B9042
:200ECC000D9920460C4602F0E5FA002804D0304800680B9981421DD0A2680021204601F025
:200EEC004FFF079815E00E9802F09EFC079404460E9802F03EFA079803460B9A042807D08D
:200F0C00115C401CA142F9D0401E03281C46C4D901200B900D9802F02CFA0B9C1C480068DC
:200F2C0084420B940AD00CA847550A98401C099E089F65E7032712E0059F10E0002E0DD0C3
:200F4C00069A16602C206843099E3018006A417811714068906002E0074600E0099E4C2426
:200F6C0020460C3004D0305902F003FA2C3CF7E7002F0B9800D038460FB0F0BDC0220020A3
:200F8C00443A00004C3A0000F408000000200020C4220020F0B5FFB090B01D460E920F4613
:200FAC000C900468204602F088FC2118FF2007900246FC320FA805928218531C049301925B
:200FCC00921C0892401C029008460026F2430D92949A06920991844200D3D8E0641C0D98B1
:200FEC00205C002800D1D2E0252806D00C990C600E99A847641C761CF1E7601C0C99086081
:20100C002478732C11D110CF002C2CD00A970B95204602F052FC07460025BD421FDA605D92
:20102C000E990B9A90476D1CF7E70799FE310FA8202202F0FFFA0021089803910170252C50
:20104C0050D0632C0B9552D0642C03D0782C01D06F2C55D10A976F2C09D00A2708E0BE1975
:20106C000B9D0A9F83E000200E99A8477FE00827782C00D1102701200090642C7DD06F2C97
:20108C0003D0782C01D0702C06D10A9810C80A90002C01D0049D1AE0302004990870002454
:2010AC00019D14E0102F03D0082F03D1E00805E0200903E02046394601F0A8FF394641431C
:2010CC00611A354A515C29700D996D180446002CE8D10098002803D12D2028700D982D1807
:2010EC000A9F0EE00FA825210180012238E001CF04990870C0B2414241410391019D00E026
:20110C00049D0898401B0FAC00280A9701DC201A441C691C0598C31C002720463A4602F02C
:20112C00CBF90399002901D00770401C0B9D0FA9884209D80D9943180299091A202218460C
:20114C0002F078FA0FA807700FAFE11B2022384602F070FA384602F0B0FB039942180A9F61
:20116C000FA80E99069B9847411C0FD08619701C0CD00C98046809982DE70A9810C80A9069
:20118C00002C85D564420020009083E70D9E30467FB010B0F0BDC046D43C0000F0B5C1B014
:2011AC000793144677480068029002F085FA4898002804D04999012901DB02F089FA4A98EA
:2011CC00039047980690469F2089E168081804946189401800260590B04214D9801B069C53
:2011EC00A04200D80446079831463A46234602F0C9F9002800D0AEE03846214602F068FA6D
:20120C00A6190598E8E708A802F04AFA01F0A3FA0398002803D008A9202202F0BBFB0026CC
:20122C00009630A8584B0499079A01F033F90546002800D092E0554800680690F7433C462A
:20124C0005960396264630A838A937AA36AB01F07BF8002800D584E000D084E036A8008808
:20126C0022281ED1002E3C46ECD4069886423C46E8DA37A80388802B00D97CE0389910AA3A
:20128C00079802F07FF900286BD137A80388F0B2009008A8202110AA00F03EFC02903C4650
:2012AC00D0E701281CD010283446CBD137A80088202860D1389910AA2023079802F062F96E
:2012CC0000284ED108A810A9202202F057FB05462F4800680121059185423446B2D03DE00A
:2012EC0037A80388202B46D8389910AA079802F049F9002835D137A80578202D3C46A1D8DF
:20130C00039C0495069884421FDAE00021490D580818466802F0D0F931682846049D02F05A
:20132C00D7F939A802F0BCF9002D10D010A839A92A4603780E789E4205D1521E491C401C4A
:20134C00002AF6D104E0641CDCE73C4600E0002401F001FA76E7054601F0FDF9284641B009
:20136C00F0BD0546FAE70598002806D008480068029F874203D13D46F0E70125EEE7014859
:20138C000568EBE7C0220020FFFF0000B03D0000C4220020983D0000FEB516460446802041
:2013AC002058E76F7A1C022808D001280CD0002815D1666CA06C0190E06C03E0900033182F
:2013CC000193181802900DE05643B000636DA66DE56D2D180295351801951E1802E0002643
:2013EC0001960296A36FE06EE56D009751438F00E9195B4D0A46A847A36FE16FE26E206E1D
:20140C0000913146A84702F035FA0199A8472E46A36FE56FE26E216F606E0095B047354690
:20142C00A36FE16FE06E0091029E31463246A847A36FE16FE26E206F656D0091E919484DA6
:20144C00A847474DA36FE06F616DA26D0090C819D1193246A847A36FE06FE26E616DA56D6C
:20146C000090E819C9193E4DA847A36FE06F226E216F656D0090E8193A4DA84702F0FAF934
:20148C003146374EB047A36FE06F226F616DE56D0090E819C919B047A36FE16F626E206F10
:2014AC00A56D0091E9192F4DA847A36FE16FE06E626D0091D1190A46B047A36FE26F216FDC
:2014CC00A06E00920A46B047A36FE06FE26E216EA56D0090E819B047A36FE26FE16E206EFF
:2014EC00656D0092EA19B047A36FE16F226EA06E009101461B4EB047A36FE16FE06EA26D8B
:20150C000091D1190A46FFF707FAA36FE06FA16EE26E656D0090E819B047A36FE16FA06E73
:20152C00626DA56D0091E919D219B047216F2546743529CDA26E0095094EB047A36FE56F56
:20154C00226E616EE06E0095B047616FA36FE06FE26EA46D0090E019024CA047FEBDC04635
:20156C0081070000AD090000F0B589B00391C16F082901D3052600E00426032900D203261E
:20158C0002468032089200220123079008981CB2A64209D3641E0125A540EC1C0568A542B3
:2015AC0000D31A465B1CF2E7D0B2441E01274B1C9A00A3409B00039DEB1804939E18B21857
:2015CC0006920290022807D30798836F0091069829462A46FFF7CEF83846A04005902C4611
:2015EC00079D38B2059981420FDDAB6FE86F009080000019001D2146069AFFF7BBF8E86F46
:20160C0080000019041D7F1CEBE7A86F8468A01E08990860284606990F4602F0ABF9611E56
:20162C00484248410121EA6F0BB29A4210D9AC6F9A0013199B68C4B2012C06D10020002BE5
:20164C0001D05B1E01E0C3430120BB50491CEAE7521C0498039902F0FFF8A96FE86F82006B
:20166C0051184A6800213B46002A02D0491C5208FAE74001411822390498044608B2002848
:20168C004FD41F2008408AB20F46510989005958C140C80738D005970898029901602846F1
:2016AC00194601F0D5F9049000252746E8B20899096881420CD90798836FC06F00903046C0
:2016CC0039463A46FFF756F86D1C34463E46ECE7079DAB6FE86F00900499491E8AB2D20B9F
:2016EC008918490889B2401C4843800003990A1830463946FFF73EF8089800880599091A82
:20170C0030463E46069BB8E7AB6FE86F0090304621462246FFF72EF8069B791E3046264607
:20172C00ABE7E86F421C039D2846214602F094F8284609B0F0BD7047F0B58FB00D920C91B8
:20174C000446406802F02CF9A56A861CB101284601F078FF6168284601F0F5FE02460E903A
:20176C002046294600F0C7FCB600AD19594A28460C999047AF1938460D99564A90470B96C8
:20178C00B8190D9461680C90524A90470E9E2846314601F0E3FF002801D0132098E038466D
:2017AC00314601F0DBFF002801D0142090E009970B9F0C9BD8190590C0190890C019C019A4
:2017CC00C0190490C0190790C0192C460690C519E9190D980A91224600F0F4FE014611205D
:2017EC00012975D102940395B4000A99095900296ED10A9E30460B9901F024FF0D9831462C
:20180C00099A0C9B00F0DEFE0146122001295FD10A990919096800295AD10B980A990818E3
:20182C000C900D9EB36FF06FF26900902A4D059C20460299A847B36FF06FF26900900898D5
:20184C000999A847B36FF06F0090049D284621462246214FB847B36FF06F0090079829466E
:20186C0022461D4DA8472F46B36FF06F326A0090069D284621463C46B84728210A9F384610
:20188C0001F0E0FEB36FF06F0090384607992A46FFF742F8B36FF06F726A009038463946B4
:2018AC00FFF73AF8B36FF06F0090039E304608990A46A0470C980B9901F0C4FE3046394604
:2018CC000E9A01F0C5FE002801D1152000E016200FB0F0BD3D37000081070000FEB5002917
:2018EC0007D00D460646424F0020072F03D8014603E00020FEBD394608398D4277D8009031
:20190C003C4800688047701E08210642304600D00846072E00D80846E91D02910721364AD9
:20192C001378002B18D1072F01D8002301E03B46083B002B03D1324B00241C600AE02F4BA5
:20194C0000249C602E4D2B60072F01D8274600E0083F1F6001231370029A8A43029241420C
:20196C000191421E264E3668002E1AD037460837D31901990B409F423D4608D034461034B8
:20198C001D46083DA54201D21B18F9E71D4602996B1831680124A1437918994206D2083621
:2019AC00E1E71848006880470098FEBD304601F025FEBD4211D0E81B014608393268316051
:2019CC00E3431A40101A204319407418A060304601F010FD2046083000E0304604460299BC
:2019EC0001F09AF807480068804720460830FEBD00200000CC220020D4220020000000201D
:201A0C0068250020D0220020F0B585B00C4605463F4800688047204601F04CF800286ED0CD
:201A2C00A668E368002120466A5C491C002AFBD14269072422404F1E042A03900ED1002430
:201A4C003E46002E4BD029190068324601F0FAFC002848D4361A04190398F2E70294324671
:201A6C009B1B0097002F35D09F421E4600D83E464069029908400024022804930CD128467C
:201A8C0031460197174601F047FE3A46019F002802D0401B461C012410462946324601F06E
:201AAC0079FF039881688A198260BF1BAD19002C049B01D19B1BD5D1064601F089F9002819
:201ACC0018D17069202101437161B268F068831A3046C7E70F4800688047009F14E00D4840
:201AEC000068804710E001208002039A51690143516104E001208002716901437161054807
:201B0C00006880470020C743384605B0F0BDC046CC220020D0220020F0B597B01E461746AD
:201B2C000D4604461C98C0003B490A581292081840680068111812A816AA302301F096FC55
:201B4C00002826D10194169812990C1812A802AA13AB214600F07CFD00281AD10398072877
:201B6C0017D104982D49072201F08CFD002810D1149808280DD115982949082201F082FD40
:201B8C00002806D112A816AA214601F0C3FB002804D00020C443204617B0F0BD1699412994
:201BAC00F7D112984118A142F3D101780429F0D1401C12901397BC1913A816AA302321468E
:201BCC0001F054FC00260028314615D1169813990818A04231460FD802A813A9224601F094
:201BEC007DF80028314607D102A8203013A9224601F074F841424141F443202DCBD1002924
:201C0C00C9D000F046FC129802AA019901F03CF80446FFF790FDBEE7983D0000A03D0000B4
:201C2C008C3D0000F8B5002872D00446394800688047083C38480025A04207D2016801228E
:201C4C0091434118083105460846F5E7324A3349072901D98A18083A016801270B46BB43D7
:201C6C00C6180836964200D90026A0424DD1C8074BD0002D0AD029683940284600D000200C
:201C8C00002E06D1002932D100260BE0002E2ED000203178C907314600D0002100280FD0C2
:201CAC000E460546284601F0A9FC002E0CD10120C043216801402A6808320240501813E013
:201CCC00002500292F4612D0304601F097FC0120C043002F0FD0216801402A681032024047
:201CEC00511832680240881828602C460AE020680121884305E031680140226808320240D5
:201D0C0050182060204601F075FB054800688047F8BDC046CC220020000000200020000083
:201D2C00D0220020FEB50446C06F451C8027E551266C616D374B304602962A469847E259A1
:201D4C00361DA80030180190A16D324B9847E259E8003518E16D28462E4B98472078801E7F
:201D6C0003218140C81DE05120462946FFF7FCFB606EA36FE16F0091274F29462A46B84785
:201D8C00A36FE16F206E626E00912946B847A36FE06F226E00902846019E3146B847A36F62
:201DAC00E06F626E009030460299B8476168A06F01F0C9FBA16FE26F204600F09CF9216FEF
:201DCC000122204601F0BFFCA36FE16F226FA06E00913146B847A26FE36FA16E3046FEF7DD
:201DEC0023FEA16B2046324601F03FFCE06E226FA36FE16F00912946B847A26FE36FE16EAE
:201E0C002846FEF711FEE16B20462A4601F02DFCFEBDC0466538000081070000F0B5FFB0CE
:201E2C00FFB0D3B0054631A80321018053A93B912D493A912D4939912D4938912D493791D5
:201E4C002D4936912D4935912D4934912D4933912D4932912C305C2101F0F4FB0920C44366
:201E6C0028684168412939D100680078042835D1082028901F9016900D900490686816A9A2
:201E8C00091D224FB847A8680DA9091DB847E86804A9091DB8472868006828AE311D401C1B
:201EAC00B847286800681FAD291D2130B84731A831462A46FFF740FC16280ED104A8019071
:201ECC000DA8009031A828A91FAA16ABFEF7DAFD0024A52802D0E44300E0093420467FB015
:201EEC007FB053B0F0BDC046FC3B0000B43B0000683C0000443C0000203C0000D83B000038
:201F0C00903B00008C3C0000B03C000051330000F0B585B01F4616460D4604463548006895
:201F2C0080472068401C03D0042E07D0002F05D13148006880470020C5434EE004970295D9
:201F4C0067696068211D03910025EB4300280DD0390704D5C0180193FFF764FE019B03989F
:201F6C00056045608560C560082087430120002E014600D03146072297430F436761049EB3
:201F8C00310A00D006020298002807D00498012804D00298401C039908600EE00193761CE2
:201FAC00304601F0BBFC03990860002818D008210F436761401C6060019B8119C918A0606D
:201FCC00E16020610C4C206880470A48006880470A480B49016020688047284605B0F0BDE5
:201FEC000120800207436761034800688047019DF3E7C046CC220020D0220020B82200200E
:20200C0021320000F0B587B00446806AA067616801F099FAE067002804D00246FF2803D96F
:20202C00D22066E0082064E0A16F087AC00701D1DC205EE090000B185B68002B58D0D300EF
:20204C005B18083304931D180835561CB0002B1803931B180693069B1B1802931F180597BA
:20206C002778BF1EBE40B600059B9F19BB190193049B23646564039BA364069BE364029B4B
:20208C002365059B6365A765019BE3659B1906931D182E1837183B18181805900698206601
:2020AC006566A666E766236705986067204600F022F8E16C204600F088F8A36FE26FE16CBF
:2020CC00206E00920A46FEF727FCE06F400180216050226E656EA16E20462B4600F028FA30
:2020EC000146E06F421C284601F0B6FB992000E0302007B0F0BDF0B585B0009204900391EF
:20210C008E68C8680024B51C074603460190674128463946324601F0F3F901F005FC05464A
:20212C000F4602963246019B01F0EAF901F0FCFB05460F463246019E334601F0E1F901F0EA
:20214C00F3FB01F000FC01F0EFFB01F0FCFB801C61412A463B46009F01F0D2F9039B03C3E7
:20216C00B800083BC1184968CA0F049D6A70002911D419460831002202243B46002B1ED0F2
:20218C000D68ED43EE0F6D002C190C505641091D5B1E3446F2E71946083101233A46254653
:2021AC00002A0CD00E68F643F6180E501D436B1E9D41734273412B40091D521EEFE704984F
:2021CC0003998167C76705B0F0BDFEB50D460446022000900290E06F801C0299814202D22E
:2021EC0001F0EEFAF6E701222046294601F0ABFAA36F0833204629462A4600F0C5FE01F059
:20220C0003FB02D001F075FB01468020215001F0A4FB01F074FBE06F800000272F5002972B
:20222C0026468036E06FC10E09074942029A8A4228D20190019801280FDB0198800028587F
:20224C000004019989004919891E098840180199890068500198401EEBE728680004286099
:20226C0001F0D2FA02D001F044FB0146316001F074FB01F044FBE06F80002F500298401CE7
:20228C000290CFE700990291801C0299814204D201F096FA0290E06FF6E7FEBDFCB50346FA
:2022AC0004680D1B5F20C043012D0ADB2678370608D4651C1D6026781660491B8E4200D814
:2022CC000020FCBD7F273E40761E032E31D8B60001A7BE59B746C046F52200004323000032
:2022EC000123000019230000022DEADB6678A51C1D60E1E7042DE4DBE5780195A7786678BA
:20230C00251D1D6033043C02E3180FE0052DD8DB25790195E5780095A7786678651D1D608C
:20232C0033063C04E318009C24021B19019C1E19C2E7001FFCBD032DC3DBA6786778E51C06
:20234C001D603B029E19B7E7F0B585B00026F743002834D004460068002830D06068002832
:20236C002DD0019302910392216960690125814226D220684089002804D0E068814201D13A
:20238C00091D2161606804AA042301F0FBF8002815D1A07A002803D0E068216981420FD26F
:2023AC002089124988420ED004A9098881420AD0206904A949880818011D2161D5E73D4684
:2023CC00284605B0F0BD0199002901D0049808802069001D0299086004A840880399088028
:2023EC0021694018001D20613546E9E7FFFF0000F0B58B4200D1824204D90B0002000021F6
:20240C00002040E0002B00D1002A0CD10B00020000210020002B00D1002A01D0C943C04319
:20242C0000F0D3FD2FE01C0015000B0002000CB4002126002F00FF19764102D2491C4029DC
:20244C00F9D100201E001700FF19764102D2401C4028F9D10E1A21002800320001F0B0F8E4
:20246C000C0005000CBC00200021A34200D1AA4201D3521BA341404149416D08E7073D4381
:20248C006408761EF1D5059F002F01D03A607B60F0BD7047F0B585B00024E743002812D0BB
:2024AC000E4600290FD0002A0DD0054603933089F1680918104604AA04230290019101F059
:2024CC0061F8002802D0384605B0F0BD708904A90988164B5A1C9142039A11D104A94988DF
:2024EC008842F0D10199091804AA0423029801F049F80028E7D104A80188039A0B4B01E000
:20250C000028E0D19942DED10A98A8722A812E60029868600199081D286170890818E8604C
:20252C0004A94988401868612746CCE707690000F0B587B01E460F460446836FC06F0090D0
:20254C00084611460292FEF715F9802005942058049001200390C40700210A46002C2ED0D4
:20256C00002A06920DD00598836FC06F009030460D4639463A46FEF7FDF8294630463E4647
:20258C000746254604980540002911D0002D11D00598836FC06F0090304606913946029A08
:2025AC00FEF7E8F806993846039A3746064603E0069A01E00025039A29436408CEE7384686
:2025CC0007B0F0BDFFB5029000921468250C01931E68F7433F0C7D191C4FB743A4B2E41919
:2025EC00641C260CA81903900604A4B234190C60012087B2029AD46F651CBD421AD9BF0045
:20260C00009AD459250C019AD2590E46D3431B0C5B190E4D9543A1B2039A120C89184919A7
:20262C000A0C9A180392130489B25A183146F251401CDEE7A0000A58521C01D0002003E04E
:20264C00081800210160012004B0F0BDFFFF0000FEB51C4617460E46054602AA302300F04C
:20266C0005FF002800D0FEBD2868311A6522D243012929DB019201783A4602C202994618A9
:20268C0006232846314600F0F1FE0028EBD12868B8607868296808182860B04216D001784B
:2026AC00401C2860224602C228463146FFF7F6FD0028D8D12868A0606068296808182860CE
:2026CC00B04207D00198FEBD901DFEBD0C21204601F058F80020FEBDF0B586B005930492B1
:2026EC0080220290805882B20192000C009000273C463D46009E0298C06F854226D2049A6F
:20270C0001CA04920391010C019A13464B43DB1987B2104678430019059A10CA0592A2B26E
:20272C008018020C9A18130C7143591892B27743230CFB189A18130CC9188CB20F0C110491
:20274C0080B20818039901C16D1CD4E738042043086006B0F0BD7047FEB504460025EF4304
:20276C000168481C06D002916669204600F030FB002802D03D462846FEBD012000030640B7
:20278C000196207D000707D56068C019FFF74AFA60690821884360616560A560E560206826
:2027AC0000F0C6FA0546276001980028E3D0064800688047029800010449081801F0E6F8C3
:2027CC00034800688047D6E7CC220020F8230020D0220020F8B50446154F38688047002C6D
:2027EC0007D0204600F0F4FA04461248006880471CE00024104D009410480068844211DA5D
:20280C002868401C0BD038688047284600F0E0FA0646084800688047009830430090183593
:20282C00641CE9E7034800688047009C2046F8BDCC220020D022002000210020C8220020A0
:20284C0070B514460D4606461648006880473068401C1FD0012C08D1307DC00605D5B06873
:20286C00002802D040193169451A304600F0B0FA05204002716981437161306829462246AA
:20288C0000F0CCFD0446084800688047601C06D0002404E00448006880470020C443204648
:2028AC0070BDC046CC220020D0220020FEB5044600680026815D002903D03A2903D0761C8C
:2028CC00F8E7144D23E08719124D20D0082E00DB0826002E11D06A46314603781370002B1C
:2028EC0005D0521C491E401C0029F6D105E0022903D3501C491E00F0A5FE684600218155E5
:20290C0000F0C2FB002802D0791C216005462846FEBDC046F0210020F8B517460E4605469A
:20292C00144800688047380A134CE071A771300E6071300C2071300AE070A670280A607078
:20294C002570F420002521462A462B4600F096FC2046294600F078FCE578A67827786478A4
:20296C000648006880472002C0193104401829064018F8BDCC22002060250020D022002045
:20298C0070B59AB00D46064614480068804701AC2046314600F08AFF304600F09CFF064642
:2029AC000019401C294600F081FF284600F093FF3018831CF7200A4D2946224600F05EFC51
:2029CC000021284600F040FC2C786D780548006880472802001900B21AB070BDCC22002031
:2029EC0060250020D0220020F0B5184A0378401C0024082CFAD00578DE070DD12D014778E7
:202A0C003E0976190F253D40ED1C122D0AD185782F0609D4C01C0DE0401C0D70491C641C6A
:202A2C005B08E6E7801C06E07F273D40C778FF017D19001D1235964207D0F643002DEED0A9
:202A4C008F5D0F706D1E491CF8E7F0BDFF0F0000FCB58023C45880300023DF43944205D95C
:202A6C000B68541C0460A740BB431AE0521C161B1F25730901952E40DBB29B000093CB58E3
:202A8C00F3403D46A540AB433519212D09D3019D2A409740009D69184968B943A21A9140F2
:202AAC00CB18611EDA0703D10160491E5B08F9E7D8B2FCBD10B5044601680020491C25D0B3
:202ACC006269D10623D4100605D500210222204600F058FF6269900604D4500602D52020C9
:202AEC00024362616168012000290DD1042111400AD1072002400120030200212046FFF774
:202B0C0007FA014640424841E168216110BD012189020A43626110BDF8B5044602680125AD
:202B2C001046A843401A102821D366180838B060A8430836371808370E480F4A072A01D983
:202B4C0010180838009187420DD23878C0070AD1384600F053FDE8433968014032680832D7
:202B6C00024050183060304600F044FC009A2A432260F8BD0000002000200000F8B51446E4
:202B8C000F460646114800688047380A104DE870AF70200A68702C700023F05C5B1C00283E
:202BAC00FBD1F0202946324600F068FB0021284600F04AFB2E786D780648006880472802FD
:202BCC00801900B2002800D42046F8BDCC22002060250020D0220020F8B517460C4605461B
:202BEC00104800688047380A01D001200702380A0D4EF070B770280A70703570F2200022F6
:202C0C003146134600F03AFB3046214600F01CFB347875780548006880472802001900B2C5
:202C2C00F8BDC046CC22002060250020D0220020F8B515460C460646104800688047280AA9
:202C4C0001D001200502280A0D4FF870BD70300A78703E70F320394622462B4600F00EFB18
:202C6C000021384600F0F0FA3C787D780548006880472802001900B2F8BDC046CC220020EC
:202C8C0060250020D0220020F0B599B014460191074602AE04203070701C202539462A4616
:202CAC0000F078FE30462130203739462A4600F071FE17AD41222846314600F06FFE019834
:202CCC001490139515942034169413A8FFF7A6F8002801D00020C04319B0F0BD7CB5154688
:202CEC000C46064601AA02230846294600F0BEFB01461F20C043002901D01D307CBD019D4D
:202D0C00202D05D32168491909182022304608E02020411B304600F095FC701B20302168DF
:202D2C002A4600F037FE20684019206000207CBD70B50026F44300281AD40546092817DC31
:202D4C000C4800688047E8000B4A115800290CD015186868096988470446401C05D02868F0
:202D6C002E604189012291434181044800688047204670BDCC22002068220020D02200205E
:202D8C00FEB50025EC4343787F2B19D10195029440684518AC180B4FA54210D23E680020F3
:202DAC003860094802680948294690473E6000060121C9026D180028EED0029C00E0019C06
:202DCC002046FEBD244402405800000F8FA0E3B770B504460026F5430068411C16D06168AB
:202DEC0063699A060AD5002908D0A268521A05D000F028FB00280BD463696168A1602161FE
:202E0C00580602D53020834363613546284670BD01208002616901436161F7E7F8B500F093
:202E2C00FBFB00F009FD01A800F0F6FC002816D1019800680B49884211D17D2082000F20B1
:202E4C00032100F04FFA0198008903990A5882F30888081840688047002004B080BD00F054
:202E6C00A0FBC0463DB8F396F0B58023C3581C0C15682E0CA4199BB2ADB25D192B0CE318D4
:202E8C001C04ADB264190C600124E5B21B0CC66FAE420CD9AD005659370CB6B2F618330C7D
:202EAC00DB191F04B6B2BE194E51641CEDE71846F0BD7047B0B505460D4800688047280A95
:202ECC000C4C60702570F120002521462A462B4600F0D4F92046294600F0B6F92578647801
:202EEC000548006880472002401900B2B0BDC046CC22002060250020D0220020B0B5044636
:202F0C000D48006880470023E05C5B1C0028FBD1F5200A4D2946224600F0B0F900212846EC
:202F2C0000F092F92C786D780548006880472802001900B2B0BDC046CC22002060250020EA
:202F4C00D0220020F8B516460C46054600F0BCFC0746204600F0B8FC3818263000F0DEFC3E
:202F6C00002808D00746009605492A46234600F0E3F8384600E0034800F0B6FBF8BDC0466B
:202F8C00253B00000D3B0000FEB500AC0EC4014600252846AEB2CF6FB74215D9B600019A9C
:202FAC0097593C0C029A93591A0C1219BCB220189BB2C018030CD218130480B21818009B1C
:202FCC009851100C6D1CE5E7FEBD704770B50B480B4C84420ED00B4D0B48461B002E09D093
:202FEC0003CD02789200A258401C083D9047083E0835F3E700BF00BF70BDC046343E0000F7
:20300C00283E0000403E0000503E00001CB50A0017D000230124E407A04200D204009442AF
:20302C0001D95200FBE790425B41904200D3801A914201D25208F6E71900020008001100B8
:20304C001CBD01000020FFF734FF1CBDF0B51F23134080240659F4185209D2B292008958CD
:20306C00D9400025ED432F46B740B943212C09D3203CA540006C10184068A8432022D21AAF
:20308C0090404118C8B2F0BD70B5014602780020002A13D00A4B1A4628321C467834A242C0
:2030AC000CD000240D5D165D751B002E03D0641C002DF7D0F0E7002DEED1104670BDC046D6
:2030CC00F0210020FCB4020C0B0CFF242402FF34204021400C00444315005D4306005E43B2
:2030EC000F005743320C3B0CA818C01832043B040025A1186841C9186841FCBC704770B5E4
:20310C0010CAC36F5B1C9C4200D823460C461D46002D03D040CA40C46D1EF9E79A00891898
:20312C001A46C46F641CA24203D2002410C1521CF7E7184670BD704782B0F8B50692079323
:20314C000291019006A903910748009002A801AA064BFDF71FFF0021019A117004B080BC38
:20316C0002BC02B00847C0460D3700005D390000F0B58023C358DC431368DD430023641BE5
:20318C000C601C465C410125EEB2C76FB74209D9B6009759E7191C465C417F1E8F515C4122
:2031AC006D1CF1E7E043F0BD1CB51446002000F076FBC0B201A900F009F9002801D00124FA
:2031CC0008E0019800212023224600F0DBF90446401E8441019800F0CCF820461CBDFEE7F4
:2031EC00F8B50D460446C06F421C8027E251616D074E2846B047E25990002D18A16D2846FE
:20320C00B047E25990002818E16DB047F8BDC0466538000070B50A4C2046FFF79DFA183449
:20322C000125084E3068854208DA2068002802D42046FFF791FA18346D1CF3E770BDC04676
:20324C0000210020C8220020B0B50B4A13680024082C04D015192D790555641CF8E7002900
:20326C0008D00C32002B05D010780870521C5B1E491CF7E7B0BDC046D822002070B50B4CF9
:20328C00207123600020082804D00D5C26187571401CF8E70D34002B05D010782070641C49
:2032AC005B1E521CF7E700BF70BDC046D82200200446094800688047084D6968002901D047
:2032CC00204688472868002800D0804704480068804700F073FBC046CC220020B822002077
:2032EC00D0220020F8B514460091012686400027074D0098874209D22E60204600F038FA5E
:20330C002E61204600F034FA7F1CF2E7F8BDC04610320240B0B515460446032300F0A6F81D
:20332C00002800D0B0BD2968481E28606720C0430229F7D321684A1C226009780029F1D141
:20334C000846B0BD70B51F300322D2430023202B0ED0841865782D06A67836047519E678BC
:20336C003602AD1900782818C8501B1D2046EEE770BD704706484178032900D880300078E9
:20338C00FD2804D30348044901600449416070472F03004E18110040E3887F09E3387F49C8
:2033AC001CB5019007480068804701A8FFF77EFA016A01988847044603480068804720460D
:2033CC001CBDC046CC220020D022002070B50022074B1446261D102E07D01D592C788442B7
:2033EC003446F7D10D60002070BDD04370BDC046583D0000B0B5016801229143064B1C6850
:20340C00002C06D0256895438D4202D208342346F5E784601860B0BD68250020B0B50346F1
:20342C000020C043002B0AD4092B08DCDC00044D2B59002B03D028194068DB699847B0BD14
:20344C0068220020B0B503460020C043002B0AD4092B08DCDC00044D2B59002B03D02819D4
:20346C0040689B699847B0BD6822002070B5044605684E1B6120C043012E08DB2E789E423D
:20348C0004D1681C20602046FEF708FF70BD801C70BDFEE710B5024603680020054CA3423C
:2034AC0007D1D3681289D21803D289688A4200D2012010BD3DB8F396B0B504460020002B9E
:2034CC0009D0D2B20D782570954205D0641C5B1E491C002BF6D1B0BD601CB0BD074880F355
:2034EC00088800BF00BF00F067FA002801D0FFF76DFD00F075F80120FFF7DAFE009000200C
:20350C0030B514004C4325001C0044436419050010002900FFF7D6FD001904000D00210080
:20352C00280030BD10B5002A0BD00C780378A34205D1521E401C491C002AF6D11C46181B2F
:20354C0010BD002010BDB0B504C90023036043600830531C01249C4203D220C920C0641C82
:20356C00F9E71046B0BDA06AE16FCA0010188A0080182278921E059B93405B1D4A1C5343FD
:20358C0099007047B0B5002445787F2D06D14068411810461A4600F0FDF900E0E4432046FC
:2035AC00B0BD00F039F80E240A2132222046FFF799FE7D20C20002212046FFF793FEF2E785
:2035CC0018B520239B1A04D8010000205B42994004E004009140DC402143904018BDFEE7E4
:2035EC0080B50020044A002A014601D001CA1146FFF714FC80BDC046BC3D0000054A1368AC
:20360C00002B06D011461A4608328342F7D18068086070476825002001208103044A1368FD
:20362C000B431360C0031168014311607047C046003502400B4611461A4680B500F052F920
:20364C0080BDC0460A46002180B500F04BF980BDB0B50023002A05D010C820C965402B43A9
:20366C00521EF7E758425841B0BD10B5C36F08C10024C36F9C4203D208CA08C1641CF8E78D
:20368C00184610BD10B50C780378A34205D1521E401C491C002AF6D11C46181B10BD0000F0
:2036AC0080B50146024802680248904780BDC0468000000F9824002080B5034802680348CA
:2036CC000021904780BDC0467800000F9824002080B50A460146024803680248984780BD59
:2036EC007C00000F98240020044C30342146FEF78BF92046FFF76EF800F060F90021002077
:20370C00B0B514460D460146286800F043F92868001928602046B0BD02460020002906D01D
:20372C0013780A2B02D0491E521CF7E71046704710B504C91346002B03D010C910C05B1E20
:20374C00F9E7104610BD04C10122C36F5B1C9A4203D2002308C1521CF7E7704700220029DE
:20376C0003D008C81A43491EF9E750425041704703494143002902D000BF491EFAE7704793
:20378C00AA0F000080B50A4602490B680021984780BDC046B43D000003228058002804D0F4
:2037AC0000220A70491C401EF8E7704740B584B002AE0096FEF71CFE029A039B04B040BD9F
:2037CC0002988000A16F0A58D2430A500298401C7047A06AE16FCA0010188A0080184A1C61
:2037EC00D100704710B500239A4203D0CC5CC4545B1CF9E710BD80B50B4603214258C11D18
:20380C00184600F0C7F880BDA26FE06F8000295882185268002A704780B501460148FDF703
:20382C009FFA80BD0025002040787F38022801D300207047FF2070470120800301490860F1
:20384C007047C04610320240EFF3108072B6FFF791FDFFF743FEFEE7002A03D008C908C04B
:20386C00521EF9E7704738463268910078186D1C27787047A36FE16F206FE26D0091D21961
:20388C007047002903D0002204C0491EF9E77047022801D8401C70470020C043704702296A
:2038AC0001D8481C70470020C04370470A780270401C491C002AF9D170470021425C491CAA
:2038CC00002AFBD1481E70470021425C491C002AFBD1481E70470021425C491C002AFBD178
:2038EC00481E704700239A4202D0C1545B1CFAE770474019001F00685242002356E7A26FC5
:20390C000832204629462B4600E0000082B00094014C019410BD00BFE526000080B5014680
:20392C000820FDF7DBFF80BD801C61412A463B46E6E59259A36FE76F009770479259A36FB0
:20394C00E56F0095704705460F46029A3346D7E50A68531C0B6010707047204629462A4682
:20396C0000E0000082B00094014C019410BD00BF752E0000802280580860704780B5FFF7C0
:20398C00D1FD80BD80B5FEF75BFF80BD80B5FFF707FD80BD80B5FFF725FF80BD06C07047DA
:2039AC00006870470095FFE782B00094014C019410BD00BF810700000120704700BFFEE729
:2039CC0000010203040001020304000102030400010203040001020304000102030400019E
:2039EC0002030400010203040001020304000102030400010203040001020304010101017C
:203A0C0001020202020203030303030404040404000001020300000102030000010203005A
:203A2C000001020300010203040001020304000102030400010203047263203D3D2030008D
:203A4C00433A2F74692F73696D706C656C696E6B5F6C6F77706F7765725F66335F73646BF3
:203A6C005F375F31305F30305F32335F656E672F736F757263652F74686972645F7061721C
:203A8C0074792F6D6375626F6F742F626F6F742F626F6F747574696C2F7372632F6C6F619F
:203AAC006465722E63003059301306072A8648CE3D020106082A8648CE3D030107034200EE
:203ACC00042ACB403CE8FEED5BA44995A1A91DAEE8DBBE1937CD14FB2F245737E5953988D7
:203AEC00D994B9D65AEBD7CDD5308AD6FE48B24A6A810EE5F07D8B6834CC3A6AFC538EFA75
:203B0C00C16D616C6C6F63206661696C656420696E20617373657274004173736572746957
:203B2C006F6E206661696C65642C20282573292C2066696C652025732C206C696E65202505
:203B4C00640A002E0000000000000001010101010202020202020202020203030303030392
:203B6C000303030304050404040405040404040504040404050404040000000000010101D6
:203B8C000101000008000000FCFFFFFFFFFFFFFFFFFFFFFF0000000000000000000000001E
:203BAC0001000000FFFFFFFFFCFFFFFFFFFFFFFFFFFFFFFF03000000000000000000000008
:203BCC0004000000FCFFFFFF00000000080000004B60D2273E3CCE3BF6B053CCB0061D65B0
:203BEC00BC86987655BDEBB3E7933AAAD835C65ADFBDC42962DF9CD890308478CD05F0ACC6
:203C0C00D62E21F7AB20A2E5344887041D0630DC000000000800000096C298D84539A1F411
:203C2C00A033EB2D817D0377F240A463E5E6BCF847422CE1F2D1176B08000000F551BF373E
:203C4C006840B6CBCE5E316B5733CE2B169E0F7C4AEBE78E9B7F1AFEE242E34F0300000070
:203C6C0000000000FFFFFFFFFBFFFFFFFEFFFFFFFFFFFFFFFDFFFFFF04000000000000004F
:203C8C0008000000512563FCC2CAB9F3849E17A7ADFAE6BCFFFFFFFFFFFFFFFF00000000E2
:203CAC00FFFFFFFF08000000FFFFFFFFFFFFFFFFFFFFFFFF00000000000000000000000000
:203CCC0001000000FFFFFFFF30313233343536373839616263646566003031323334353614
:203CEC00373839414243444546000001000100010001000100010000010100010001000170
:203D0C00000101010101000000000000000000000000000000000203040500000000000183
:203D2C0001000000000000000000000000000000000000010001000001010001000100016F
:203D4C00000100010001000100010000683D0000743D0000803D000000000000007F0000C0
:203D6C000000000000600000017F00000020030000A00400027F00000060000000C00200ED
:203D8C002A8648CE3D03010700000000B23A0000B83D00002A8648CE3D0201000303010219
:103DAC000303000001000000F13800005B0000007C
:083DBC000000000000000000FF
:203DC800005500000F810212114001118F012212C0F502130F0124144FA3010200892B7F81
:203DE8000000C12E0000E50070FF3D2C0000252900009F092F00008D0070217F3EF00721F7
:203E08000020007515B100F114BF0228FF1E69FF00002C31032C80433100330100FFF00029
:203E2800F529000003380000A5370000000000000200000094020000C83D00000020002068
:083E4800383E0000D8220020E2
:020000044E02AA
:20000000FFFFFFFF000000000000000000000000FFFFFFFFFFFFFFFFAAAAAAAA0F00000035
:20002000FFFFFFFFFFFFFFFF00000000FFFFFFFF00000000000000000000000000000000CC
:200040000000000000000000000000000000000000000000000000000000000000000000A0
:20006000000000000000000000000000000000000000000000000000000000000000000080
:20008000000000000000000000000000000000000000000000000000000000000000000060
:2000A000000000000000000000000000000000000000000000000000000000000000000040
:2007C000000000000000000000000000000000005AA500000101020305080D156DD7E43686
:2007E000EBF431DF95AE15EE03BA8EE4C4C63FD8453F675E74D7C2012C9058E500000000A4
:00000001FF
